:020000040000FA
:100000000A128A11FC2F1A30F500F830F400F40BB4
:100010000728F50B072800003030F0000030F10011
:100020000A168A1578210A128A110730F5007D30E8
:10003000F400F40B1928F50B19283030F0000030CB
:10004000F1000A168A1578210A128A112130F4006B
:10005000F40B28283030F0000030F1000A168A1521
:1000600078210A128A112130F400F40B3528383037
:10007000F0000030F1000A168A1578210A128A1160
:100080001330F400F40B422845280830F00000300B
:10009000F1000A168A1578210A128A111330F40029
:1000A000F40B502853280130F0000030F1000A16FC
:1000B0008A1578210A128A110730F5007D30F40084
:1000C000F40B6028F50B60280630F0000030F100DA
:1000D0000A168A1578210A128A111330F400F40BDB
:1000E0006F2872280C30F0000030F1000A168A15D3
:1000F00078210A128A111330F400F40B7D2880282D
:10010000080083160313C500A130A9002908B20016
:10011000E52F2530480603198E288F289B2848088C
:10012000A900450884002908831380000130A90034
:100130002908C507E52FB901BA01B701B8012008A0
:1001400084000A128A150A200A128A110A168A15D0
:100150004C210A128A11031CAE28AF28EF288316FF
:100160000313B901BA010A30F0000030F100831620
:1001700003133A08F3003908F2000A168A15C02161
:100180000A128A11710883160313BA007008B900A5
:10019000200884000A128A150A200A128A11D03E09
:1001A000A900FF3003180030AA002908B907031876
:1001B000BA0A2A08BA070130A9002908A0072008AE
:1001C00084000A128A150A200A128A110A168A1550
:1001D0004C210A128A110318EE28EF28B32883163F
:1001E0000313200884000A128A150A200A128A11B1
:1001F0002E3A031DFC28FD28422938170130A9009A
:100200002908A007C601C70131290A30F0000030D3
:10021000F100831603134708F3004608F2000A169C
:100220008A15C0210A128A11710883160313C700A8
:100230007008C600200884000A128A150A200A12D3
:100240008A11D03EA900FF3003180030AA00290807
:10025000C6070318C70A2A08C7070130A9002908DA
:10026000A007200884000A128A150A200A128A119F
:100270000A168A154C210A128A11031840294129AD
:1002800005294829C601C7013816482938156429A7
:10029000013083160313A007FF30200784000A12E1
:1002A0008A150A200A128A11C800A900AA012A0880
:1002B000003A03195C29E52F2908003A0319F72FA2
:1002C000663A03194629E52F00303705A9000730A3
:1002D0003805AA0029082A0403196F297029222F3A
:1002E000381E7329742978290630C6000030C700EB
:1002F0003208840083130008C100840A0008C20089
:10030000840A0008C300840A0008C4000430A9005D
:100310002908B2074408F3004308F2004208F1003C
:100320004108F0000030F7000030F6000030F50022
:100330000030F4000A168A1585240A128A1103185F
:10034000A229A329C029831603134408F3004308F4
:10035000F2004208F1004108F0000A168A15322125
:100360000A128A11730883160313C4007208C300AB
:100370007108C2007008C1000330B7040030B8042F
:1003800083160313BF01C0014408F3004308F200C1
:100390004208F1004108F0000030F7000030F6009C
:1003A0000030F5000030F4000A168A15BB220A124C
:1003B0008A110318DC29DD29CD2A031083160313C3
:1003C000430D440D823EBF00FF3003180030C000D3
:1003D000FF30BF070318C00AFF30C0070330F0002A
:1003E0000030F1004008F3003F08F2000A168A15B9
:1003F000C0210A128A11710883160313C000700805
:10040000BF000A30F7000030F8004008FA003F084B
:10041000F9000A168A151C240A128A117808831614
:100420000313C0007708BF00C01F172A182A1E2A0E
:10043000FF30BF070318C00AFF30C0073F03FF3A71
:100440000A128A1540210A128A11831203134108E5
:1004500083160313BE00831203134008831603138D
:10046000BD00831203133F0883160313BC008312DD
:1004700003133E0883160313BB00440883120313BF
:10048000A70083160313430883120313A6008316E1
:100490000313420883120313A500831603134108B4
:1004A00083120313A400831603133E08831203135D
:1004B000AB00831603133D0883120313AA008316AF
:1004C00003133C0883120313A900831603133B088C
:1004D00083120313A8000A128A159F240A128A1194
:1004E00083120313270883160313BE00831203131A
:1004F000260883160313BD008312031325088316F1
:100500000313BC0083120313240883160313BB00D8
:100510003E08F3003D08F2003C08F1003B08F00003
:100520003F30F7008030F6000030F5000030F40076
:100530000A168A1585240A128A110318A02AA12AEC
:10054000AA2AFF3083160313BF070318C00AFF301F
:10055000C007CD2A831603133E08F3003D08F200BE
:100560003C08F1003B08F0004130F7002030F60075
:100570000030F5000030F4000A168A1585240A12AE
:100580008A11031CC42AC52ACD2A013083160313FD
:10059000BF070318C00A0030C007831603134708BB
:1005A000803AFF0080307F02031DD82A0D304602BA
:1005B0000318DB2ADC2A232B8316031346080A16AA
:1005C0008A116D230A128A11831203134108D50080
:1005D0004008D4003F08D3003E08D200831603131E
:1005E000440883120313D9008316031343088312AC
:1005F0000313D80083160313420883120313D70092
:1006000083160313410883120313D6000A168A11B6
:1006100078250A128A1183120313550883160313CF
:10062000C40083120313540883160313C3008312F8
:100630000313530883160313C200831203135208D3
:1006400083160313C100831603134008803AFF008A
:1006500080307F02031D2E2B0A303F020318312BFE
:10066000322B832B831603134408F3004308F20054
:100670004208F1004108F0000030F7000030F600B9
:100680000030F5000030F4000A168A15BB220A1269
:100690008A1103184C2B4D2BF52B8316031344089A
:1006A00083120313D4008316031343088312031326
:1006B000D30083160313420883120313D200831658
:1006C0000313410883120313D1000A128A15C420B0
:1006D0000A128A118312031354085304520451045A
:1006E000031D732B742BF52B831603134008803ADC
:1006F000FF0080307F02031D7F2B02303F02031C6E
:10070000822B832BF52B831603133E08F3003D0841
:10071000F2003C08F1003B08F0004030F70089305F
:10072000F6007030F5005F30F4000A168A15852453
:100730000A128A1103189D2B9E2BA72BF7308316C4
:100740000313BF070318C00AFF30C007AF2BF830F0
:1007500083160313BF070318C00AFF30C0073F0802
:100760000A128A1540210A128A11831203134108C2
:1007700083160313BE00831203134008831603136A
:10078000BD00831203133F0883160313BC008312BA
:1007900003133E0883160313BB004408F300430809
:1007A000F2004208F1004108F0003E08F7003D0861
:1007B000F6003C08F5003B08F4000A168A154227AB
:1007C0000A128A11730883160313B6007208B50063
:1007D0007108B4007008B3000030C4000030C300DA
:1007E0000030C2000030C100792C83160313440886
:1007F00083120313D40083160313430883120313D5
:10080000D30083160313420883120313D200831606
:100810000313410883120313D1000A128A15C4205E
:100820000A128A1183120313540883160313B600A5
:1008300083120313530883160313B50083120313A3
:10084000520883160313B40083120313510883164E
:100850000313B3003608F3003508F2003408F10042
:100860003308F00000300A168A15CB250A128A11C7
:10087000730883120313E9007208E8007108E700A7
:100880007008E60083160313440883120313ED0077
:1008900083160313430883120313EC008316031318
:1008A000420883120313EB008316031341088312DB
:1008B0000313EA000A168A159C210A128A11831270
:1008C0000313690883160313C40083120313680813
:1008D00083160313C30083120313670883160313DD
:1008E000C20083120313660883160313C100BF01FD
:1008F000C001C801C80A4808A90001300310A90DA9
:10090000FF3E031D7E2C0310290D693E84000A1250
:100910008A150A200A128A11AA000A128A150A20C8
:100920000A128A11AB000A128A150A200A128A11C9
:10093000AC000A128A150A200A128A11AD002D088D
:100940003602031DAD2C2C083502031DAD2C2B08DF
:100950003402031DAD2C2A0833020318B02CB12C2D
:10096000B22CBC2C0130A9002908C8070A3048065F
:10097000031DBB2CBC2C7B2C48084607A90047084C
:100980000318470AAA003F082907AB0040080318CC
:10099000400A2A07AC002B08B9022C08031CBA0332
:1009A000BA02460847040319D62CD72CDD2CFF3099
:1009B000B9070318BA0AFF30BA0703303705A90090
:1009C00000303805AA0029082A040319E82CE92C6C
:1009D000FE2CFF30B9070318BA0AFF30BA07FE2C05
:1009E000203083160313A9004508840029088313C7
:1009F00080000130A9002908C507E92C3A08803A8F
:100A0000FF0080307F02031D072D013039020318DB
:100A10000A2D0B2DF02C0330831603133705A90084
:100A200000303805AA0029082A040319182D192DA9
:100A30008B2D2D30A90045088400290883138000E0
:100A40000130A9002908C5078B2D4808A9000130ED
:100A50000310A90DFF3E031D282D0310290D693E2B
:100A600084000A128A150A200A128A11F0000A125A
:100A70008A150A200A128A11F1000A128A150A2020
:100A80000A128A11F2000A128A150A200A128A1121
:100A9000F3003608F7003508F6003408F50033088F
:100AA000F4000A168A15B6230A128A1173088316EF
:100AB0000313BE007208BD007108BC007008BB00C3
:100AC0000030F3000030F2000030F1000A30F00096
:100AD0003E08F7003D08F6003C08F5003B08F4002E
:100AE0000A168A1509230A128A117308831603133A
:100AF000BE007208BD007108BC007008BB003B0856
:100B0000303EA90045088400290883138000013085
:100B1000A9002908C5070130C802480A031D912D04
:100B2000922D252DA62D303083160313A9004508DC
:100B300084002908831380000130A9002908C50713
:100B4000FF30BF070318C00AFF30C0074008803AD3
:100B5000FF0080307F02031DAF2D01303F020318DC
:100B6000B22DB32D932D831603134708803AFF004F
:100B700080307F02031DBE2D09304602031CC12DAB
:100B8000C22DC92D083083160313A9002908C800F7
:100B9000CF2D831603134608A9002908C80048086A
:100BA000A900AA012908C6022A08031CC703C70214
:100BB00048080319DC2DDD2DE82D2E30A90045084D
:100BC00084002908831380000130A9002908C50783
:100BD00048080A128A1540210A128A118312031347
:100BE000410883160313B1008312031340088316D0
:100BF0000313B000831203133F0883160313AF00DF
:100C0000831203133E0883160313AE0031088312C8
:100C10000313AB0083160313300883120313AA00D7
:100C2000831603132F0883120313A90083160313DB
:100C30002E0883120313A80083160313440883129B
:100C40000313A70083160313430883120313A6009C
:100C500083160313420883120313A500831603139C
:100C6000410883120313A4000A128A159F240A1252
:100C70008A11831203132708D4002608D3002508FD
:100C8000D2002408D1000A128A15C4200A128A113F
:100C900083120313540883160313B600831203133D
:100CA000530883160313B5008312031352088316E7
:100CB0000313B40083120313510883160313B30004
:100CC000022F4808A90001300310A90DFF3E031DA3
:100CD000642E0310290D693E84000A128A150A2029
:100CE0000A128A11F0000A128A150A200A128A11C1
:100CF000F1000A128A150A200A128A11F2000A1259
:100D00008A150A200A128A11F3003608F7003508FE
:100D1000F6003408F5003308F4000A168A15B623E5
:100D20000A128A11730883160313BE007208BD00ED
:100D30007108BC007008BB000030F3000030F20006
:100D40000030F1000A30F0003E08F7003D08F600E0
:100D50003C08F5003B08F4000A168A1509230A121C
:100D60008A11730883160313BE007208BD00710850
:100D7000BC007008BB003B08303EA9004508840059
:100D80002908831380000130A9002908C5074808F5
:100D9000A90001300310A90DFF3E031DCA2E031048
:100DA000290D693E84000A128A150A200A128A1146
:100DB000F0000A128A150A200A128A11F1000A129A
:100DC0008A150A200A128A11F2000A128A150A20CC
:100DD0000A128A11F3003608F7003508F6003408C5
:100DE000F5003308F4000A168A1509230A128A113D
:100DF000730883160313B6007208B5007108B400B7
:100E00007008B3000130C802480A031D082F092FDB
:100E1000612E1B2F3030A900450884002908831358
:100E200080000130A9002908C507FF30C607031854
:100E3000C70AFF30C70746084704031D202F212F8C
:100E40000A2FE52F46084704031D272F282F362F8A
:100E50003608350434043304031D2F2F302F362F6A
:100E60000130C6070318C70A0030C7074708803A91
:100E7000803C031D3D2F460848020318402F412F98
:100E8000482F831603134608A9002908C800602FBD
:100E9000831603134708803AA90080302902031DF6
:100EA000532F480846020318562F572F602F8316DA
:100EB00003134808A900AA012908C6002A08C70088
:100EC0008316031339083A040319672F682F7A2F02
:100ED00003303705A90000303805AA0029082A0484
:100EE0000319732F742F7A2FFF30B9070318BA0A2A
:100EF000FF30BA07381F7D2F7E2F992F4708803A81
:100F0000A9003A08803A2902031D882F39084602B1
:100F100003188B2F8C2F952F831603134608B902C5
:100F20004708031CBA03BA02992F83160313B901A9
:100F3000BA013A08803A803C031DA02F39084802C4
:100F40000318A32FA42FB02F831603134808A9005A
:100F5000AA012908B9022A08031CBA03BA02B42F4D
:100F600083160313B901BA0139083A040319B92FDA
:100F7000BA2FD12F2030A9004508840029088313F7
:100F800080000130A9002908C507FF30B907031800
:100F9000BA0AFF30BA0739083A04031DD02FD12FFF
:100FA000BA2F03303705A90000303805AA002908F8
:100FB0002A040319DC2FDD2FE52F2D30A900450869
:100FC000840029088313800096280130A007FF3091
:100FD000200784000A128A150A200A128A11A90021
:100FE0002908C8004808031DF62FF72F892845084F
:100FF000840083138001080083010A168A113A28AD
:10100000FF1B0A2883137F1883170008840A03191B
:10101000FF0A080008308A000408840A82070034A6
:101020000034003480343F34003400342034413400
:1010300000340034C8344234003400347A34443448
:10104000003440341C34463400345034C334473404
:1010500000342434743449348034963418344B3496
:101060002034BC34BE344C3428346B346E344E34AB
:10107000F934023415345034EC347834AD346034FF
:10108000CA34F234493471340034003480343F348B
:10109000CD34CC34CC343D340A34D73423343C34CE
:1010A0006F34123483343A341734B734D13438348B
:1010B000AC34C53427343734BD3437348634353412
:1010C0009534BF34D63433347734CC342B34323483
:1010D0005F34703489343034FF34E634DB342E34FA
:1010E0000834E5343C341E3460344234A2340D34C8
:1010F00001340034003400340A3400340034003445
:101100006434003400340034E834033400340034F0
:101110001034273400340034A034863401340034D1
:10112000403442340F3400348034963498340034E0
:101130000034E134F53405340034CA349A343B3495
:101140005334313420342034203420342034533488
:101150003234203420342034203420345334333497
:101160000034253431342E34323466342034203483
:0C117000253431342E343234663400341F
:10118800031083120313530D540DD5005508DB00CB
:101198005B08031DD028D128DA280030D40000309D
:1011A800D3000030D2000030D1003F295108D500CB
:1011B8005208D6005308D7005408D8001F3003102F
:1011C800D80CD70CD60CD50CFF3E031DE3285508C8
:1011D800D9005908DA00D317FF30D105FF30D205FE
:1011E800FF30D3050030D4059630DB02DB1FFD2825
:1011F800FE2818295B08803A973E03180429052918
:101208000629D12801300310D40CD30CD20CD10CF0
:10121800FF3E031D07290130D5005508DB07031DD4
:101228001629172906292F2920305B02031C1D299E
:101238001E292A29D1280130D5000310D10DD20D3D
:10124800D30DD40DD50B21290130DB025B08031D1A
:101258002E292F291F295A080319332934293F29F0
:10126800D109D209D309D409D10A0319D20A031919
:10127800D30A0319D40A080083120313D000D01F1D
:1012880046294729F42AD009D00A5008803A123E44
:10129800031C4F295029382A0A30F7000030F8007B
:1012A8005008F200F301F21BF3036430F000003041
:1012B800F1000A168A155D230A128A157108FA00C8
:1012C8007008F9000A168A151C240A128A1577086C
:1012D80083120313C20001300310C20DFF3E031D29
:1012E80070290310420D593E84000A128A150A20FB
:1012F8000A128A15C3000A128A150A200A128A15C8
:10130800C4000A128A150A200A128A15C5000A1290
:101318008A150A200A128A15C6004608A700450839
:10132800A6004408A5004308A4006430F700003074
:10133800F8005008F900FA01F91BFA030A168A1591
:101348001C240A128A15770883120313C700013078
:101358000310C70DFF3E031DAC290310470D7D3E4A
:1013680084000A128A150A200A128A15C8000A126D
:101378008A150A200A128A15C9000A128A150A2033
:101388000A128A15CA000A128A150A200A128A1530
:10139800CB004B08AB004A08AA004908A900480836
:1013A800A8000A128A159F240A128A1583120313A9
:1013B8002708CF002608CE002508CD002408CC0039
:1013C8000A30F0000030F1005008F200F301F21B7F
:1013D800F3030A168A155D230A128A157008831208
:1013E8000313C20001300310C20DFF3E031DF7298D
:1013F8000310420D353E84000A128A150A200A128B
:101408008A15C3000A128A150A200A128A15C4000E
:101418000A128A150A200A128A15C5000A128A15A4
:101428000A200A128A15C6004608A7004508A60021
:101438004408A5004308A4004F08AB004E08AA00C2
:101448004D08A9004C08A8000A128A159F240A1200
:101458008A15831203132708C1002608C00025082F
:10146800BF002408BE009E2C5008803A753E031C1D
:101478003E2A3F2AC72A0A30F0000030F1005008FF
:10148800F200F301F21BF3030A168A155D230A1210
:101498008A15700883120313C20001300310C20DAD
:1014A800FF3E031D522A0310420D353E84000A12E6
:1014B8008A150A200A128A15C3000A128A150A20F8
:1014C8000A128A15C4000A128A150A200A128A15F5
:1014D800C5000A128A150A200A128A15C60046088B
:1014E800A7004508A6004408A5004308A4000A3040
:1014F800F7000030F8005008F900FA01F91BFA0368
:101508000A168A151C240A128A15770883120313EF
:10151800C70001300310C70DFF3E031D8E2A0310BC
:10152800470D593E84000A128A150A200A128A15A4
:10153800C8000A128A150A200A128A15C9000A1256
:101548008A150A200A128A15CA000A128A150A2060
:101558000A128A15CB004B08AB004A08AA004908B2
:10156800A9004808A8000A128A159F240A128A1599
:10157800831203132708C1002608C0002508BF00EE
:101588002408BE009E2C5008C20001300310C20D72
:10159800FF3E031DCA2A0310420D353E84000A127D
:1015A8008A150A200A128A15C3000A128A150A2007
:1015B8000A128A15C4000A128A150A200A128A1504
:1015C800C5000A128A150A200A128A15C60046089A
:1015D800C1004508C0004408BF004308BE009E2C57
:1015E8005008803A123E031CFA2AFB2AE32B0A30E1
:1015F800F7000030F8005008F200F301F21BF30383
:101608006430F0000030F1000A168A155D230A12D2
:101618008A157108FA007008F9000A168A151C2440
:101628000A128A15770883120313C20001300310C7
:10163800C20DFF3E031D1B2B0310420D253E8400E7
:101648000A128A150A200A128A15C3000A128A1574
:101658000A200A128A15C4000A128A150A200A12D8
:101668008A15C5000A128A150A200A128A15C600A8
:101678004608A7004508A6004408A5004308A4009A
:101688006430F7000030F8005008F900FA01F91B3F
:10169800FA030A168A151C240A128A157708831277
:1016A8000313C70001300310C70DFF3E031D572B5E
:1016B8000310470D493E84000A128A150A200A12AF
:1016C8008A15C8000A128A150A200A128A15C90042
:1016D8000A128A150A200A128A15CA000A128A15DD
:1016E8000A200A128A15CB004B08AB004A08AA0048
:1016F8004908A9004808A8000A128A159F240A1256
:101708008A15831203132708CF002608CE00250860
:10171800CD002408CC000A30F0000030F100500859
:10172800F200F301F21BF3030A168A155D230A126D
:101738008A15700883120313C20001300310C20D0A
:10174800FF3E031DA22B0310420D013E84000A1226
:101758008A150A200A128A15C3000A128A150A2055
:101768000A128A15C4000A128A150A200A128A1552
:10177800C5000A128A150A200A128A15C6004608E8
:10178800A7004508A6004408A5004308A4004F0880
:10179800AB004E08AA004D08A9004C08A8000A1280
:1017A8008A159F240A128A15831203132708C10079
:1017B8002608C0002508BF002408BE009E2C50083B
:1017C800803A753E031CE92BEA2B722C0A30F00094
:1017D8000030F1005008F200F301F21BF3030A167F
:1017E8008A155D230A128A15700883120313C20032
:1017F80001300310C20DFF3E031DFD2B0310420DE7
:10180800013E84000A128A150A200A128A15C300AA
:101818000A128A150A200A128A15C4000A128A15A1
:101828000A200A128A15C5000A128A150A200A1205
:101838008A15C6004608A7004508A6004408A50062
:101848004308A4000A30F7000030F8005008F900F7
:10185800FA01F91BFA030A168A151C240A128A15BA
:10186800770883120313C70001300310C70DFF3E2A
:10187800031D392C0310470D253E84000A128A15D2
:101888000A200A128A15C8000A128A150A200A12A2
:101898008A15C9000A128A150A200A128A15CA006E
:1018A8000A128A150A200A128A15CB004B08AB00C7
:1018B8004A08AA004908A9004808A8000A128A1577
:1018C8009F240A128A15831203132708C1002608C9
:1018D800C0002508BF002408BE009E2C5008C20086
:1018E80001300310C20DFF3E031D752C0310420D7D
:1018F800013E84000A128A150A200A128A15C300BA
:101908000A128A150A200A128A15C4000A128A15B0
:101918000A200A128A15C5000A128A150A200A1214
:101928008A15C6004608C1004508C0004408BF0023
:101938004308BE0008008312031327088039AC004F
:101948002C08B1002708AC002C07AD002D08B70003
:10195800A61FAF2CB02CB12C371437080319B52C9F
:10196800B62CC52C370A031DBA2CBB2CC32C00304F
:10197800A7000030A6000030A5000030A400A6177C
:10198800CD2C0030A7000030A6000030A5000030A4
:10199800A4002B088039AC002C08B1062B08AC0039
:1019A8002C07AD002D08B600AA1FDB2CDC2CDD2C83
:1019B800361436080319E12CE22CF12C360A031DE3
:1019C800E62CE72CEF2C0030AB000030AA000030EA
:1019D800A9000030A800AA17F92C0030AB0000308D
:1019E800AA000030A9000030A80036080319FD2C11
:1019F800FE2C032D3708031D022D032D0C2D00305E
:101A0800A7000030A6000030A5000030A400FF2F7A
:101A18002408AC002C08F0002A080A168A15E521CB
:101A28000A128A15710883120313BD007008BC00DE
:101A38003C08AC00AD01AE01AF012F08B5002E087F
:101A4800B4002D08B3002C08B2003D08AC00AD016D
:101A5800AE01AF012F08BB002E08BA002D08B9004F
:101A68002C08B8002508AC002C08F00029080A1634
:101A78008A15E5210A128A15710883120313BD001D
:101A88007008BC003C08AC00AD01AE01AF012C08E9
:101A9800B2072D0803110318013E0319542DB3078B
:101AA8002E0803110318013E03195B2DB4072F08F4
:101AB80003110318013E0319622DB5073D08AC0058
:101AC800AD01AE01AF012C08B8072D0803110318AA
:101AD800013E0319702DB9072E0803110318013EA2
:101AE8000319772DBA072F0803110318013E0319AC
:101AF8007E2DBB072608AC002C08F00028080A1623
:101B08008A15E5210A128A15710883120313BD008C
:101B18007008BC003C08AC00AD01AE01AF012C0858
:101B2800B2072D0803110318013E03199C2DB307B2
:101B38002E0803110318013E0319A32DB4072F081B
:101B480003110318013E0319AA2DB5073D08AC007F
:101B5800AD01AE01AF012C08B8072D080311031819
:101B6800013E0319B82DB9072E0803110318013EC9
:101B78000319BF2DBA072F0803110318013E0319D3
:101B8800C62DBB070830AC000310B20DB30DB40D61
:101B9800B50DAC0BC82D2508AC002C08F0002808A2
:101BA8000A168A15E5210A128A1571088312031389
:101BB800BD007008BC003C08AC003D08AD00AE019B
:101BC800AF012C08B2072D0803110318013E0319B1
:101BD800EE2DB3072E0803110318013E0319F52D46
:101BE800B4072F0803110318013E0319FC2DB5078C
:101BF8002408AC002C08F00029080A168A15E521EB
:101C08000A128A15710883120313BD007008BC00FC
:101C18003C08AC003D08AD00AE01AF012C08B2078E
:101C28002D0803110318013E03191B2EB3072E08B4
:101C380003110318013E0319222EB4072F080311BC
:101C48000318013E0319292EB5070830AC0003100C
:101C5800B20DB30DB40DB50DAC0B2B2E2408AC0092
:101C68002C08F00028080A168A15E5210A128A1598
:101C7800710883120313BD007008BC003C08AC0057
:101C88003D08AD00AE01AF012C08B2072D080311C5
:101C98000318013E0319512EB3072E080311031828
:101CA800013E0319582EB4072F0803110318013EEB
:101CB80003195F2EB5072508AC002C08F0002A0888
:101CC8000A168A15E5210A128A1571088312031368
:101CD800BD007008BC003C08AC003D08AD00AE017A
:101CE800AF012C08B8072D0803110318013E03198A
:101CF8007E2EB9072E0803110318013E0319852EFD
:101D0800BA072F0803110318013E03198C2EBB07CD
:101D18002608AC002C08F00029080A168A15E521C7
:101D28000A128A15710883120313BD007008BC00DB
:101D38003C08AC003D08AD00AE01AF012C08B80767
:101D48002D0803110318013E0319AB2EB9072E08FD
:101D580003110318013E0319B22EBA072F08031105
:101D68000318013E0319B92EBB072608AC002C083E
:101D7800F0002A080A168A15E5210A128A15710840
:101D880083120313BD007008BC003C08AC003D087A
:101D9800AD00AE01AF0108300310AC0DAD0DAE0DB6
:101DA800AF0DFF3E031DD02E2C08B8072D080311D8
:101DB8000318013E0319E12EB9072E080311031871
:101DC800013E0319E82EBA072F0803110318013E34
:101DD8000319EF2EBB073208AC003308AD003408F6
:101DE800AE003508AF0018300310AF0CAE0CAD0CC8
:101DF800AC0CFF3E031DF82E2C08B8072D08031164
:101E08000318013E0319092FB9072E0803110318F7
:101E1800013E0319102FBA072F0803110318013EBA
:101E28000319172FBB070830AC000310B20DB30D10
:101E3800B40DB50DAC0B192F37083607AC00AD0142
:101E4800AD0D2C08823EBC002D080318013EFF3E54
:101E5800BD004B2F0130AC000310B80DB90DBA0D01
:101E6800BB0DAC0B302FB51F3A2F3B2F3C2F38142E
:101E78000130AC000310B20DB30DB40DB50DAC0BB1
:101E88003E2FFF30BC070318BD0AFF30BD07BA1F3D
:101E98004E2F4F2F2E2FB601B51F532F542F702FB3
:101EA800FF303205AC00FF303305AD00FF3034059C
:101EB800AE007F303505AF002F082E042D042C040A
:101EC8000319672F682F6B2FB601B60A702F381CBD
:101ED8006E2F6F2F702F682F36080319742F752FE8
:101EE800A62F0130B807003003180130B9070030B9
:101EF80003180130BA07003003180130BB073B1C38
:101F0800862F872FA62F3808AC003908AD003A086D
:101F1800AE003B08AF000130B0002F0DAF0CAE0C87
:101F2800AD0CAC0CB00B912F2F08BB002E08BA00DB
:101F38002D08B9002C08B8000130BC070318BD0AE9
:101F48000030BD073D08803AFF0080307F02031D46
:101F5800AF2FFF303C02031CB22FB32FBE2F7F30B0
:101F680083120313BB008030BA000030B900003080
:101F7800B800F32F831203133D08803AFF00803026
:101F88007F02031DC92F01303C020318CC2FCD2F2F
:101F9800D92F003083120313BB000030BA00003081
:101FA800B9000030B800B101F32F831203133C08C5
:101FB800AC002C08B700FF30B805FF30B9057F30FA
:101FC800BA050030BB05371CEA2FEB2FEC2FBA17E8
:101FD8003708AC0003102C0CAD002D08BB003108ED
:101FE800AC002C08BB043B08A7003A08A600390837
:101FF800A5003808A4000800700871040319052812
:1020080006283528F501F50A142801300310F00DCB
:10201800F10DFF3E031D0A280130F4007408F5078E
:10202800F11F17281828092871087302031D1E2894
:1020380070087202031C2128222828287008F2023E
:102048007108031CF303F30201300310F10CF00CC8
:10205800FF3E031D29280130F502031D34283528C9
:1020680018287308F1007208F0000800831203139F
:10207800850101308316031385008312031386013B
:102088008316031386018312031387018316031330
:1020980087018312031388018316031388018312AF
:1020A8000313890183160313890103308316031769
:1020B800880089010A128A1103200A168A110A1651
:1020C8008A155E210A168A110130F4000030F500E5
:1020D8000130F6000030F7000A168A150C220A169D
:1020E8008A119130F2008030F3000A168A153522E1
:1020F8000A168A1100300A168A1527250A168A1127
:10210800831203130C131E084330C1007F30C00034
:102118000030BF000030BE004030A700A030A6004D
:102128000030A5000030A4001E0883160313C90060
:10213800CA01CB01CC014C08F3004B08F2004A0855
:10214800F1004908F00001300A168A15CB250A1655
:102158008A11730883120313AB007208AA0071086E
:10216800A9007008A8000A128A159F240A168A1165
:10217800831203132708C5002608C4002508C300D6
:102188002408C2000A168A1190210A168A1183129D
:102198000313410883160313E40083120313400852
:1021A80083160313E300831203133F0883160313F4
:1021B800E200831203133E0883160313E100A530DF
:1021C80083160313C900C90BE728EA2801300A1649
:1021D8008A1527250A168A11831203130C131E0861
:1021E8004330C1007F30C0000030BF000030BE0067
:1021F8004030A700A030A6000030A5000030A400A1
:102208001E0883160313C900CA01CB01CC014C0870
:10221800F3004B08F2004A08F1004908F0000130C9
:102228000A168A15CB250A168A1173088312031316
:10223800AB007208AA007108A9007008A8000A1269
:102248008A159F240A168A11831203132708C500CA
:102258002608C4002508C3002408C2000A168A11EB
:1022680090210A168A118312031341088316031357
:10227800E80083120313400883160313E700831250
:1022880003133F0883160313E600831203133E0863
:1022980083160313E500413083160313CA00ED309B
:1022A800C900C90B5529CA0B55295A29A2308316CA
:1022B8000313C9004908A0006408A4006308A30028
:1022C8006208A2006108A1006808A8006708A700C2
:1022D8006608A6006508A500CD300A128A1181207B
:1022E8000A168A110230F4000030F5000130F600B9
:1022F8000030F7000A168A150C220A168A11CD300A
:10230800F2000030F3000A168A1535220A168A11DF
:102318007E280A128A11002883120313450880397F
:10232800C6004608CF004508C6004607C70047084C
:10233800D600C41FA029A129A2295614560803199A
:10234800A629A729B729560A031DAB29AC29B42900
:102358000030C5000030C4000030C3000030C200A7
:10236800C417C501BF290030C5000030C4000030C3
:10237800C3000030C20041088039C6004608CF06B5
:102388004108C6004607C7004708D700C01FCD2927
:10239800CE29CF29571457080319D329D429E4295A
:1023A800570A031DD829D929E1290030C100003076
:1023B800C0000030BF000030BE00C017C101EC29CA
:1023C8000030C1000030C0000030BF000030BE0047
:1023D800410840043F043E04031DF329F4290D2A53
:1023E8000030C5000030C4000030C3000030C20017
:1023F8008030C4047F30C5044F08C6004608C504B1
:102408004508C1004408C0004308BF004208BE0098
:102418006C2B5608031D112A122A1B2A0030C100F2
:102428000030C0000030BF000030BE006C2B5608E2
:10243800C600C7014708C90057084602C800031C60
:10244800C90348087F3ED00049080318013E003EF2
:10245800D1004508CE004408CD004308CC0042080E
:10246800CB000030C5000030C4000030C30000308D
:10247800C2000030D5000030D4000030D300003056
:10248800D200D701912A570803194B2A4C2A6C2AE3
:102498000130C6000310CB0DCC0DCD0DCE0DC60BF3
:1024A8004E2A0130C6000310C20DC30DC40DC50D60
:1024B800C60B572AD51F612A622A632A42140130A3
:1024C800C6000310D20DD30DD40DD50DC60B652A49
:1024D80041084E02031D7A2A40084D02031D7A2A3C
:1024E8003F084C02031D7A2A3E084B02031C7D2A32
:1024F8007E2A8D2A55173E08CB023F08031C3F0F42
:10250800CC024008031C400FCD024108031C410FB8
:10251800CE020130C6004608D7071A305702031CFE
:10252800962A972A472A4E084D044C044B0403194F
:102538009E2A9F2ABE2A5214BE2A0130C6000310C2
:10254800C20DC30DC40DC50DC60BA32AD51FAD2AD8
:10255800AE2AAF2A42140130C6000310D20DD30DA3
:10256800D40DD50DC60BB12AFF30D0070318D10AF8
:10257800FF30D107C41FC12AC22AA12AD701D51FFB
:10258800C62AC72AE32AFF305205C600FF30530582
:10259800C700FF305405C8007F305505C9004908F9
:1025A8004804470446040319DA2ADB2ADE2AD7013D
:1025B800D70AE32A421CE12AE22AE32ADB2A57083F
:1025C8000319E72AE82A192B0130C207003003183B
:1025D8000130C307003003180130C4070030031866
:1025E8000130C507451CF92AFA2A192B4208C600EA
:1025F8004308C7004408C8004508C9000130CA009C
:10260800490DC90CC80CC70CC60CCA0B042B4908C9
:10261800C5004808C4004708C3004608C200013086
:10262800D0070318D10A0030D1075108803AFF00BB
:1026380080307F02031D222BFF305002031C252B04
:10264800262B342BFF3083120313D0000030D10027
:102658000030C5000030C4000030C3000030C200A4
:10266800831203135108803AFF0080307F02031D54
:102678003F2B013050020318422B432B502B83125F
:102688000313D001D1010030C5000030C400003070
:10269800C3000030C200CF01831203135008C600E4
:1026A8004608D600561C592B5A2B5C2BC417602B96
:1026B8007F30C6004608C4055608C6000310460CFD
:1026C800C7004708C5004F08C6004608C504042AC5
:1026D800080083120313D1006E305102031C752BBE
:1026E800762B832C3F30A7000030A6000030A500D1
:1026F8000030A4006430F6000030F7005108C20032
:10270800C3014208F8004308F9000A168A1577221F
:102718000A168A11760883120313C40001300310C5
:10272800C40DFF3E031D932B0310440D7D3E840012
:102738000A128A150A200A168A11C5000A128A1571
:102748000A200A168A11C6000A128A150A200A16D1
:102758008A11C7000A128A150A200A168A11C800A7
:102768004808AB004708AA004608A9004508A80081
:102778000A128A159F240A168A118312031327083E
:10278800D0002608CF002508CE002408CD000A3046
:10279800F6000030F7005108C200C3014208F200F9
:1027A8004308F3006430F0000030F1000A168A1183
:1027B80000200A168A117108F9007008F8000A1634
:1027C8008A1577220A168A11760883120313C40021
:1027D80001300310C40DFF3E031DED2B0310440D03
:1027E800593E84000A128A150A200A168A11C50061
:1027F8000A128A150A200A168A11C6000A128A15B0
:102808000A200A168A11C7000A128A150A200A160F
:102818008A11C8004808A7004708A6004608A5006E
:102828004508A4005008AB004F08AA004E08A900AC
:102838004D08A8000A128A159F240A168A118312C5
:1028480003132708CC002608CB002508CA00240853
:10285800C9000A30F0000030F1005108C200C3017D
:102868004208F2004308F3000A168A1100200A16EB
:102878008A11700883120313C40001300310C40DB9
:10288800FF3E031D422C0310440D353E84000A12FE
:102898008A150A200A168A11C5000A128A150A2002
:1028A8000A168A11C6000A128A150A200A168A11FF
:1028B800C7000A128A150A200A168A11C800480891
:1028C800A7004708A6004608A5004508A4004C082C
:1028D800AB004B08AA004A08A9004908A8000A1238
:1028E8008A159F240A168A11831203132708C10028
:1028F8002608C0002508BF002408BE00772D0B302D
:102908005102031C882C892C342D3F30A70000303D
:10291800A6000030A5000030A4000A30F600003000
:10292800F7005108C200C3014208F8004308F90043
:102938000A168A1577220A168A1176088312031353
:10294800C40001300310C40DFF3E031DA62C031064
:10295800440D593E84000A128A150A200A168A1163
:10296800C5000A128A150A200A168A11C6000A1218
:102978008A150A200A168A11C7000A128A150A201F
:102988000A168A11C8004808AB004708AA0046087A
:10299800A9004508A8000A128A159F240A168A1158
:1029A800831203132708D0002608CF002508CE007D
:1029B8002408CD000A30F0000030F1005108C200B0
:1029C800C3014208F2004308F3000A168A110020E6
:1029D8000A168A11700883120313C4000130031009
:1029E800C40DFF3E031DF32C0310440D353E840037
:1029F8000A128A150A200A168A11C5000A128A15AF
:102A08000A200A168A11C6000A128A150A200A160E
:102A18008A11C7000A128A150A200A168A11C800E4
:102A28004808A7004708A6004608A5004508A400CE
:102A38005008AB004F08AA004E08A9004D08A8008E
:102A48000A128A159F240A168A118312031327086B
:102A5800C1002608C0002508BF002408BE00772D45
:102A68003F30A7000030A6000030A5000030A400C9
:102A78005108C20001300310C20DFF3E031D3F2D57
:102A88000310420D353E84000A128A150A200A16E0
:102A98008A11C3000A128A150A200A168A11C4006C
:102AA8000A128A150A200A168A11C5000A128A15FE
:102AB8000A200A168A11C6004608AB004508AA0073
:102AC8004408A9004308A8000A128A159F240A1678
:102AD8008A11831203132708C1002608C00025089D
:102AE800BF002408BE00080083120313550880396C
:102AF800DA005A08E2005508DA005A07DB005B08DA
:102B0800E400D41F882D892D8A2D641464080319C4
:102B18008E2D8F2D9F2D640A031D932D942D9C2D92
:102B28000030D5000030D4000030D3000030D2008F
:102B3800D417D501A72D0030D5000030D4000030BF
:102B4800D3000030D20059088039DA005A08E3006F
:102B5800630862060319B12DB22DB32D6217590807
:102B6800DA005A07DB005B08E300D81FBC2DBD2D37
:102B7800BE2D631463080319C22DC32DD32D630A18
:102B8800031DC72DC82DD02D0030D9000030D80026
:102B98000030D7000030D600D817D901DB2D00301F
:102BA800D9000030D8000030D7000030D6006408C3
:102BB80063020318E02DE12D252E621FE42DE52D7B
:102BC800E92D8030DA005A08E2066408DA005A086B
:102BD800E5006308DA005A08E4006508DA005A08D4
:102BE800E3005208DA005A08E5005608DA005A08E5
:102BF800D2006508DA005A08D6005308DA005A08E5
:102C0800E5005708DA005A08D3006508DA005A08C0
:102C1800D7005408DA005A08E5005808DA005A08BC
:102C2800D4006508DA005A08D8005508DA005A08AE
:102C3800E5005908DA005A08D5006508DA005A088C
:102C4800D900E5016308DA00DB015B08DD006408F0
:102C58005A02DC00031CDD035D08803AFF00803067
:102C68007F02031D392E1A305C02031C3C2E3D2EB8
:102C78007A2E831203135508540453045204031D77
:102C8800462E482E0130492E0030DA005A08E50059
:102C98000030D5000030D4000030D3000030D2001E
:102CA8006308DA005A08E400822E651C5C2E5D2E4B
:102CB800662E6508DA0003105A0C0138DB005B0841
:102CC800E500682E0310E50C521C6B2E6C2E6D2E41
:102CD800E5170130DA00550DD50CD40CD30CD20C05
:102CE800DA0B6F2E0130DA005A08E4078312031357
:102CF80063086402031C812E822E592E621B852EC6
:102D0800862ED12E6408031D8A2E8B2E942E003019
:102D1800D5000030D4000030D3000030D200FF2F9F
:102D28005608D207570803110318013E03199D2EB0
:102D3800D307580803110318013E0319A42ED4071A
:102D4800590803110318013E0319AB2ED507551C6A
:102D5800AE2EAF2E852F651CB22EB32EBC2E650865
:102D6800DA0003105A0C0138DB005B08E500BE2EC0
:102D78000310E50C521CC12EC22EC32EE5170130DC
:102D8800DA00550DD50CD40CD30CD20CDA0BC52EA9
:102D98000130DA005A08E407852F5508803AFF0009
:102DA8005908803A7F02031DE32E58085402031D78
:102DB800E32E57085302031DE32E56085202031848
:102DC800E62EE72E3F2FFF30DA00FF30DB00FF3022
:102DD800DC00FF30DD005608DE005708DF00580829
:102DE800E0005908E1005208DE025308031C530FA3
:102DF800FE2EFF2EDF025408031C540F042F052F4C
:102E0800E0025508031C550F0A2F0B2FE1025E083C
:102E1800DA075F0803185F0F122F132FDB0760080C
:102E28000318600F182F192FDC0761080318610AAF
:102E3800DD075D08D5005C08D4005B08D3005A089C
:102E4800D2008030DA005A08E206E509E50A65088A
:102E5800031D2F2F302F4D2F0130D20700300318BC
:102E68000130D307003003180130D40700300318AD
:102E78000130D5074D2F5608D2025708031C570FAB
:102E8800D3025808031C580FD4025908031C590FC1
:102E9800D5025508540453045204031D542F552FCA
:102EA800812F6508031D592F5A2F812F0030D50017
:102EB8000030D4000030D3000030D200FF2F0130A2
:102EC800DA000310D20DD30DD40DD50DDA0B652F12
:102ED800E51F6F2F702F712F5214651C742F752FDB
:102EE800782F0314E50D7A2F0310E50D64080319F4
:102EF8007E2F7F2F812F0130E402D41F842F852F4E
:102F0800632FE301E51F892F8A2F982F65087F39E2
:102F180003198F2F902F932FE301E30A982F521C48
:102F2800962F972F982F902F630803199C2F9D2F6A
:102F3800D12F0130D207003003180130D3070030F9
:102F480003180130D407003003180130D507551C89
:102F5800AE2FAF2FD12F5208DA005308DB005408E8
:102F6800DC005508DD000130DE005D0DDD0CDC0CF9
:102F7800DB0CDA0CDE0BB92F5D08D5005C08D40039
:102F88005B08D3005A08D200640A0319CC2FCD2F4E
:102F9800D12F0130DA005A08E407640A0319D52F43
:102FA800D62FDB2F6408031DDA2FDB2FE92F003023
:102FB800D5000030D4000030D3000030D2006408BF
:102FC800031DE72FE82FE92FE201641CEC2FED2FFA
:102FD800EF2FD417F32F7F30DA005A08D40564088E
:102FE800DA0003105A0CDB005B08D500E21FFD2F46
:082FF800FE2FFF2FD517080082
:103264007308720471047004031939293A293C293A
:103274008030F3060800F100831203130914710867
:10328400880089140D30F000F00B462983120313D3
:1032940089100800F100F0013A3071020318532933
:1032A40054295C2930307102031C59295A295C299C
:1032B400F001F00A700C08000030F000F1000A166A
:1032C4008A1578210A168A150130F0000030F100C1
:1032D4000A168A1578210A168A150730F5007D30FA
:1032E400F400F40B7329F50B7329080083120313FC
:1032F40009100730F3007D30F200F20B7F29F30B45
:103304007F29831203138914700888000730F3009F
:103314007D30F200F20B8C29F30B8C2983120313FA
:1033240089100730F3007D30F200F20B9729F30B7C
:1033340097290800803083120313E9066D08D5002D
:103344006C08D4006B08D3006A08D2006908D9005D
:103354006808D8006708D7006608D6000A168A11DC
:1033640078250A168A15831203135508E9005408B0
:10337400E8005308E7005208E6000800F401F501EC
:10338400701CC529C629CC297208F4070318F50A4C
:103394007308F50701300310F20DF30DFF3E031D12
:1033A400CD2901300310F10CF00CFF3E031DD4298C
:1033B40070087104031DDF29E029C2297508F10092
:1033C4007408F0000800F800F401F5017008F20038
:1033D400F3017208F6007308F700781CF229F32948
:1033E400F9297608F4070318F50A7708F507013078
:1033F4000310F60DF70DFF3E031DFA290310F80C18
:103404007808031D062A072AEF297508F1007408B5
:10341400F000080074037504031D112A122A242ADB
:1034240076087F3EF80077080318013E003EF90055
:103434007908F1007808F0000A168A1578210A162E
:103444008A15342A023074067504031D2A2A2B2A8D
:10345400342A7608BF3EF80077080318013E003E80
:10346400F9001A2A0800F701F8015A2A77087207A6
:10347400F5007308F4000318F40AF71F422AF40352
:103484007408F600760883120313FF00750884009D
:103494000A128A1500200A168A150A168A153D2171
:1034A4000A168A150130F7070318F80A0030F807DE
:1034B40077087207F5007308F4000318F40AF71F7D
:1034C400642AF4037408F600760883120313FF00D9
:1034D400750884000A128A1500200A168A15003A13
:1034E400031D752A762A382A0800FB01FC01760898
:1034F400770403197E2A7F2AB62AFD01FD0A8D2A44
:1035040001300310F60DF70DFF3E031D832A013031
:10351400FA007A08FD07F71F902A912A822A0130BF
:103524000310FB0DFC0DFF3E031D922A7708790260
:10353400031D9E2A76087802031CA12AA22AA92A1E
:103544007608F8027708031CF903F9027B140130AA
:103554000310F70CF60CFF3E031DAA2A0130FD02EE
:10356400031DB52AB62A912A7C08F7007B08F600C9
:10357400080000307005F80000307105F900803053
:103584007205FA007F307305FB007B087A04790426
:103594007804031DCE2ACF2AD72A0030F300003046
:1035A400F2000030F1000030F00000307405F80043
:1035B40000307505F90080307605FA007F30770514
:1035C400FB007B087A0479047804031DEA2AEB2AB9
:1035D400F32A0030F7000030F6000030F500003028
:1035E400F40077087306031D012B76087206031D89
:1035F400012B75087106031D012B7408700603194D
:10360400042B052B072B0310082B03140800730845
:103614007204710470040319102B112B542BF9013B
:10362400F90A212B0130F8000310F00DF10DF20D11
:10363400F30DF80B162B0130F8007808F907F31F87
:10364400242B252B142B73087702031D332B7208AC
:103654007602031D332B71087502031D332B70088A
:103664007402031C362B372B452B7008F4027108A7
:10367400031C710FF5027208031C720FF602730823
:10368400031C730FF70201300310F30CF20CF10C5E
:10369400F00CFF3E031D462B0130F902031D532B92
:1036A400542B252B7708F3007608F2007508F100F7
:1036B4007408F0000800F601F31F612B622B692BDC
:1036C400F209F309F20A0319F30AF601F60AF11FE3
:1036D4006C2B6D2B722BF009F109F00A0319F10A16
:1036E400700871040319772B782BA72BF501F50AC1
:1036F400862B01300310F00DF10DFF3E031D7C2BD2
:103704000130F4007408F507F11F892B8A2B7B2BF9
:1037140071087302031D902B70087202031C932B13
:10372400942B9A2B7008F2027108031CF303F30222
:1037340001300310F10CF00CFF3E031D9B2B0130F4
:10374400F502031DA62BA72B8A2B76080319AB2B96
:10375400AC2BB12BF209F309F20A0319F30A73082B
:10376400F1007208F00008000030FC000030FB009B
:103774000030FA000030F900730872047104700418
:103784000319C52BC62B132CFD01FD0AD62B0130C2
:10379400F8000310F00DF10DF20DF30DF80BCB2B27
:1037A4000130F8007808FD07F31FD92BDA2BC92B59
:1037B4000130F8000310F90DFA0DFB0DFC0DF80BA8
:1037C400DC2B73087702031DF12B72087602031DAC
:1037D400F12B71087502031DF12B70087402031C90
:1037E400F42BF52B042C7008F4027108031C710FE0
:1037F400F5027208031C720FF6027308031C730FA0
:10380400F702791401300310F30CF20CF10CF00CF4
:10381400FF3E031D052C0130FD02031D122C132C49
:10382400DA2B7C08F3007B08F2007A08F1007908AF
:10383400F000080083120313A101F81F222C232C8B
:103844002A2CF709F809F70A0319F80AA101A10AB1
:10385400FA1F2D2C2E2C372CF909FA09F90A031911
:10386400FA0A0130FB007B08A106A201A301770834
:10387400780403193E2C3F2C762CA001A00A4D2C71
:1038840001300310F70DF80DFF3E031D432C0130EA
:10389400FB007B08A007F81F502C512C422C013050
:1038A4000310A20DA30DFF3E031D522C78087A02CB
:1038B400031D5E2C77087902031C612C622C692C91
:1038C4007708F9027808031CFA03FA02221401307B
:1038D4000310F80CF70CFF3E031D6A2C0130A00204
:1038E400031D752C762C512C210803197A2C7B2C62
:1038F400802CA209A309A20A0319A30A2308F80029
:103904002208F700080000307005F8000030710547
:10391400F90080307205FA007F307305FB007B08E4
:103924007A0479047804031D982C992CA12C003076
:10393400F3000030F2000030F1000030F0000030FD
:103944007405F80000307505F90080307605FA003A
:103954007F307705FB007B087A0479047804031D23
:10396400B42CB52CBD2C0030F7000030F60000302C
:10397400F5000030F400F31FC02CC12CE52C0030FE
:10398400F8000030F9000030FA008030FB007008C5
:10399400F8027108031C710FD02CD12CF9027208A3
:1039A400031C720FD62CD72CFA027308031C730F56
:1039B400DC2CDD2CFB027B08F3007A08F20079088A
:1039C400F1007808F000F71FE82CE92C0D2D0030E9
:1039D400F8000030F9000030FA008030FB00740871
:1039E400F8027508031C750FF82CF92CF9027608F7
:1039F400031C760FFE2CFF2CFA027708031C770FAA
:103A0400042D052DFB027B08F7007A08F6007908DF
:103A1400F5007808F4008030F3068030F706770864
:103A24007302031D1F2D76087202031D1F2D7508D6
:103A34007102031D1F2D740870020318222D232DFB
:103A4400252D0310262D03140800F20083120313FE
:103A54009F131F17822D9F121F129F111F11BC2D20
:103A64009F121F129F111F15BC2D9F121F129F150D
:103A74001F11BC2D9F121F129F151F15BC2D9F12C5
:103A84001F169F111F11BC2D9F121F169F111F156A
:103A9400BC2D9F121F169F151F11BC2D9F121F16A0
:103AA4009F151F15BC2D9F161F129F111F11BC2D92
:103AB4009F161F129F111F15BC2D9F161F129F15B5
:103AC4001F11BC2D9F161F129F151F15BC2D9F166D
:103AD4001F169F111F11BC2D9F161F169F111F1516
:103AE400BC2D9F161F169F151F11BC2D9F161F1648
:103AF4009F151F15BC2D9F121F129F111F11BC2D46
:103B04007208F000F1017108003A03198A2D7D2D25
:103B14007008003A03192D2D013A0319322D033A86
:103B24000319372D013A03193C2D073A0319412D86
:103B3400013A0319462D033A03194B2D013A03198F
:103B4400502D0F3A0319552D013A03195A2D033AF2
:103B540003195F2D013A0319642D073A0319692DDE
:103B6400013A03196E2D033A0319732D013A03190F
:103B7400782D7D2D831603139F139F121F1283121A
:103B840003131F140C139F149F18C92DCA2DC62D7F
:103B94000800F80078080319D02DD12DE52DF31F66
:103BA400D42DD52DE52D7009FA007109FB00720999
:103BB400FC007309FD00FA0A0319FB0A0319FC0A45
:103BC4000319FD0AED2D7308FD007208FC0071084D
:103BD400FB007008FA007308720471047004031D7A
:103BE400F42DF52DFE2D0030F3000030F2000030EE
:103BF400F1000030F000842E9630F4007408F900CF
:103C0400102E0130F4007408F90701300310FD0C84
:103C1400FC0CFB0CFA0CFF3E031D082EFE307D0548
:103C2400031D152E162E032E322E0130F4007408B7
:103C3400F9070130FA07003003180130FB070030A0
:103C440003180130FC07003003180130FD07013070
:103C54000310FD0CFC0CFB0CFA0CFF3E031D2A2E7A
:103C6400FF307D05031D372E382E172E442E0130CC
:103C7400F9020130F4000310FA0DFB0DFC0DFD0DEB
:103C8400F40B3D2EFC1B472E482E4E2E023079029B
:103C940003184D2E4E2E392E7918512E522E5A2E8F
:103CA400FF30FA05FF30FB057F30FC05FF30FD05D2
:103CB4000310F90C7908F400F501F601F701183046
:103CC4000310F40DF50DF60DF70DFF3E031D622EE6
:103CD4007408FA047508FB047608FC047708FD04EC
:103CE40078080319762E772E7C2EF31F7A2E7B2EDE
:103CF4007C2EFD177D08F3007C08F2007B08F100A0
:103D04007A08F00008007008F8007108F9007208D9
:103D1400FA000310790D7A0DFB007B08831203135C
:103D2400A5002508031D972E982EA12E0030F30020
:103D34000030F2000030F1000030F000412F740830
:103D4400F8007508F9007608FA000310790D7A0D69
:103D5400FB007B08A4002408031DB12EB22EB32E51
:103D6400982EF117FF30F005FF30F1050030F20511
:103D7400F517FF30F405FF30F5050030F605003087
:103D8400A3000030A2000030A1000030A0007F306A
:103D9400A50298302407F8007808A5021830F80026
:103DA4007808A4000130F8000310A00DA10DA20DA5
:103DB400A30DF80BD62E76087202031DE72E7508A4
:103DC4007102031DE72E74087002031CEA2EEB2E09
:103DD400F62E7408F0027508031C750FF1027608BC
:103DE400031C760AF202201401300310F00DF10DC9
:103DF400F20DFF3E031DF72E0130A402031D032F15
:103E0400042FD42EA51F072F082F222F2508803A10
:103E1400973E03180E2F0F2F102F982E01300310EA
:103E2400A30CA20CA10CA00CFF3E031D112F01300A
:103E3400F8007808A507031D202F212F102F392FF4
:103E440018302502031C272F282F342F982E0130D9
:103E5400F8000310A00DA10DA20DA30DF80B2B2F3C
:103E64000130A5022508031D382F392F292F2308D7
:103E7400F3002208F2002108F1002008F0000800F5
:103E84000310720D730DF800780883120313A50054
:103E94002508031D4E2F4F2F582F0030F3000030FC
:103EA400F2000030F1000030F000FF2F0310760D17
:103EB400770DF8007808A4002408031D622F632FEF
:103EC400642F4F2FF217FF30F005FF30F105FF305C
:103ED400F2050030F305F617FF30F405FF30F50561
:103EE400FF30F6050030F7050030A3000030A200D3
:103EF4000030A1000030A0007F30A502A0302407CC
:103F0400F8007808A5022030F8007808A4000130F1
:103F1400F8000310A00DA10DA20DA30DF80B8B2F1B
:103F240077087302031DA02F76087202031DA02FC9
:103F340075087102031DA02F74087002031CA32FBF
:103F4400A42FB32F7408F0027508031C750FF10237
:103F54007608031C760FF2027708031C770FF3022E
:103F640020140130F8000310F00DF10DF20DF30DE3
:103F7400F80BB52F0130A402031DC12FC22F892FC6
:103F8400A51FC52FC62FE02F2508803A9F3E031892
:103F9400CC2FCD2FCE2F4F2F01300310A30CA20C0A
:103FA400A10CA00CFF3E031DCF2F0130F8007808B0
:103FB400A507031DDE2FDF2FCE2FF72F203025027C
:103FC400031CE52FE62FF22F4F2F0130F8000310CA
:103FD400A00DA10DA20DA30DF80BE92F0130A50230
:103FE4002508031DF62FF72FE72F2308F3002208D7
:0C3FF400F2002108F1002008F000080095
:04400E00D4E0FFFFFC
:00000001FF
